:100000000C942A000C9447000C9447000C94470071
:100010000C9447000C9447000C9447000C94470044
:100020000C9447000C9447000C9447000C94470034
:100030000C9447000C9447000C9447000C94470024
:100040000C9447000C9447000C9447000C94470014
:100050000C94470011241FBECFE5D4E0DEBFCDBF16
:1000600010E0A0E6B0E0E2E7F6E002C005900D92F5
:10007000A036B107D9F710E0A0E6B0E001C01D92AC
:10008000A036B107E1F70E94EE000C9437030C9400
:100090000000CF93DF93CDB7DEB70E949901DF91C7
:1000A000CF910895CF93DF9300D00F92CDB7DEB7F5
:1000B0009A8389836B830E94B3010E941B0288305C
:1000C00011F080E027C089819A8180709770880F35
:1000D000892F881F990B9195806A0E94D2010E94F6
:1000E0001B02883111F080E015C089810E94D20185
:1000F0000E941B02883211F080E00CC08B810E94AC
:10010000D2010E941B02883211F080E003C00E94DD
:10011000C60181E00F900F900F90DF91CF9108956D
:10012000CF93DF9300D000D0CDB7DEB79A83898319
:100130007C836B830E94B3010E941B02883011F004
:1001400080E045C089819A8180709770880F892FDF
:10015000881F990B9195806A0E94D2010E941B0210
:10016000883111F080E033C089810E94D2010E9461
:100170001B02883211F080E02AC00E94B3010E9465
:100180001B02803111F080E022C089819A81807049
:100190009770880F892F881F990B9195816A0E940B
:1001A000D2010E941B02803411F080E010C00E9436
:1001B0000402282F8B819C81FC0120830E941B025A
:1001C000883511F080E003C00E94C60181E00F90E5
:1001D0000F900F900F90DF91CF9108950F931F9381
:1001E000CF93DF93CDB7DEB72F970FB6F894DEBF6E
:1001F0000FBECDBF1F868AE390E02FEFFC01208366
:100200008BE390E0FC0110820E94490081E193E0C1
:1002100061E00E94520080E090E0A0E2B1E48983B6
:100220009A83AB83BC8369817A818B819C8120E036
:1002300030E04AEF54E40E94AC02DC01CB018D8334
:100240009E83AF83B88711E06D817E818F81988511
:1002500020E030E040E85FE30E942B0288230CF0AE
:1002600010E0112329F081E090E09A87898746C049
:1002700011E06D817E818F81988520E03FEF4FE70F
:1002800057E40E94A80218160CF010E0112361F147
:1002900069817A818B819C8120E030E040E251E4E9
:1002A0000E94AC02DC01CB01BC01CD010E942F02F7
:1002B000DC01CB019A87898712C088EC90E09C878B
:1002C0008B878B859C858C01C8010197F1F78C0188
:1002D0001C870B8789859A8501979A8789878985E5
:1002E0009A85009751F717C06D817E818F8198851F
:1002F0000E942F02DC01CB019A87898789859A8524
:100300009E878D878D859E858C01F8013197F1F749
:100310008F011E870D879E01215F3F4F81E193E092
:10032000B9010E9490008BE390E02F85FC012083AF
:10033000FACFCF93DF93CDB7DEB780E290E022E033
:10034000FC01208381E290E0FC01108282E290E0D7
:1003500022E0FC01208386E590E024E0FC0120837C
:10036000DF91CF910895CF93DF93CDB7DEB786E5C8
:1003700090E024EAFC012083000086E590E0FC0187
:1003800080818823D4F7DF91CF910895CF93DF93B5
:10039000CDB7DEB786E590E024E9FC012083DF914C
:1003A000CF910895CF93DF930F92CDB7DEB78983B6
:1003B00083E290E02981FC01208386E590E024E837
:1003C000FC012083000086E590E0FC018081882309
:1003D000D4F70F90DF91CF910895CF93DF93CDB7EE
:1003E000DEB786E590E024ECFC012083000086E582
:1003F00090E0FC0180818823D4F783E290E0FC0147
:100400008081DF91CF910895CF93DF93CDB7DEB791
:1004100086E590E024E8FC012083000086E590E07A
:10042000FC0180818823D4F783E290E0FC01808185
:10043000DF91CF910895CF93DF930F92CDB7DEB7C1
:1004400081E290E0FC018081887F898389810F901F
:10045000DF91CF9108952FD008F481E0089557D00F
:1004600088F09F5790F0B92F9927B751A0F0D1F09D
:10047000660F771F881F991F1AF0BA95C9F712C027
:10048000B13081F05ED0B1E008955BC0672F782F66
:100490008827B85F39F0B93FCCF386957795679593
:1004A000B395D9F73EF490958095709561957F4FFF
:1004B0008F4F9F4F0895990F0008550FAA0BE0E842
:1004C000FEEF16161706E807F907C0F01216130616
:1004D000E407F50798F0621B730B840B950B39F456
:1004E0000A2661F0232B242B252B21F408950A26BC
:1004F00009F4A140A6958FEF811D811D089557FD38
:100500009058440F551F59F05F3F71F04795880F81
:1005100097FB991F61F09F3F79F087950895121618
:1005200013061406551FF2CF4695F1DF08C01616C4
:1005300017061806991FF1CF869571056105089475
:100540000895E894BB2766277727CB0197F908958C
:10055000B2DF08F48FEF08950BD078C069D028F08F
:100560006ED018F0952309F05AC05FC01124EACF6D
:10057000C6DFA0F3959FD1F3950F50E0551F629F02
:10058000F001729FBB27F00DB11D639FAA27F00DEC
:10059000B11DAA1F649F6627B00DA11D661F829F13
:1005A0002227B00DA11D621F739FB00DA11D621FF8
:1005B000839FA00D611D221F749F3327A00D611D15
:1005C000231F849F600D211D822F762F6A2F1124F7
:1005D0009F5750408AF0E1F088234AF0EE0FFF1F4A
:1005E000BB1F661F771F881F91505040A9F79E3F81
:1005F000510570F014C0A6CF5F3FECF3983EDCF3DA
:10060000869577956795B795F795E7959F5FC1F7BD
:10061000FE2B880F911D9695879597F9089597F968
:100620009F6780E870E060E008959FEF80EC089598
:1006300000240A94161617061806090608950024C1
:100640000A9412161306140605060895092E03943B
:10065000000C11F4882352F0BB0F40F4BF2B11F4AF
:1006600060FF04C06F5F7F4F8F4F9F4F0895F894D6
:02067000FFCFBA
:00000001FF
