S01300004170706C69636174696F6E2E737265639D
S11300000C942A000C9447000C9447000C9447006D
S11300100C9447000C9447000C9447000C94470040
S11300200C9447000C9447000C9447000C94470030
S11300300C9447000C9447000C9447000C94470020
S11300400C9447000C9447000C9447000C94470010
S11300500C94470011241FBECFE5D8E0DEBFCDBF0E
S113006010E0A0E6B0E0E6EEF4E002C005900D92E8
S1130070AC36B107D9F710E0ACE6B0E001C01D9290
S1130080AC36B107E1F70E94E6000C9471020C94BF
S113009000001F93CF93DF93EC0188818230F0F44A
S11300A08B81882351F010E08A81612F41E00E9406
S11300B01D011F5F8B811817B8F38881813031F4DB
S11300C089816FE00E94110181E00BC0882341F413
S11300D089816FE70E94110181E003C080E001C0C3
S11300E081E0DF91CF911F910895DF92EF92FF920B
S11300F00F931F93CF93DF93CDB7DEB72A970FB635
S1130100F894DEBF0FBECDBF7C01862FD7019C9132
S1130110913009F04CC013964C911397442309F481
S113012046C09E012F5F3F4FF9015AE0652F0E94A0
S1130130650291939E2F921B9417C0F3F70183815C
S11301408823A9F100E0DD24D70112968C91602F59
S113015041E00E944401F7018381882379F01D2D39
S1130160011739F0D70112968C91612F4D2D0E9401
S113017044011F5FF7018381181790F3E1E0F0E079
S1130180EC0FFD1FE00FF11DD70111968C916081DA
S11301900E941801E7EAF1E63197F1F700C0000088
S11301A00F5FD70113968C911397081768F281E0BB
S11301B02A960FB6F894DEBF0FBECDBFDF91CF9164
S11301C01F910F91FF90EF90DF900895CF93DF93ED
S11301D000D000D000D0CDB7DEB7DE011196E6E640
S11301E0F0E086E001900D928150E1F7CE01019696
S11301F00E94060200E610E0CE010196B80145E037
S11302000E94DE018FE39DE0A3E081509040A04076
S1130210E1F700C00000CE01019661E00E947C017C
S1130220EBCFE82FF0E08181682B618381E00895B2
S1130230E82FF0E0628381E00895423018F544230A
S113024081F0E82FF0E0218181E090E0AC0102C070
S1130250440F551F6A95E2F7BA01622B618381E06E
S11302600895E82FF0E0218181E090E0AC0102C024
S1130270440F551F6A95E2F7BA01609562236183C2
S113028081E0089580E00895423018F5442381F018
S1130290E82FF0E0228181E090E0AC0102C0440F3D
S11302A0551F6A95E2F7BA01622B628381E00895D3
S11302B0E82FF0E0228181E090E0AC0102C0440F1D
S11302C0551F6A95E2F7BA0160956223628381E063
S11302D0089580E00895E82FF0E0208181E090E027
S11302E0AC0102C0440F551F6A95E2F7BA016223BC
S11302F081E009F480E008951F93CF93DF93EC012C
S1130300162F88816B8140E00E94440188816C81B2
S113031040E00E9444018981612F0E941801888174
S11303206D8140E00E94440183E08A95F1F700006A
S113033088816D8141E00E94440191E29A95F1F730
S113034000001150123038F483EF91E00197F1F777
S113035000C0000004C090E19A95F1F700C081E06C
S1130360DF91CF911F9108951F93CF93DF93EC01F9
S1130370162F88816B8141E00E94440188816C8141
S113038040E00E9444018981612F0E941801888104
S11303906D8140E00E94440183E08A95F1F70000FA
S11303A088816D8141E00E94440181E28A95F1F7E0
S11303B0000081E0DF91CF911F910895EF92FF92A9
S11303C00F931F93CF93DF938C01D42F4423B1F069
S11303D0E62EF72EC0E0F70161917F01C8010E946B
S11303E0B40187EA91E60197F1F700C00000C80163
S11303F064E10E947C01CF5FCD1769F781E0DF9152
S1130400CF911F910F91FF90EF900895CF93DF93B9
S1130410EC0185E08A95F1F788816FEF0E94110164
S113042089816FEF0E941101CE0168E30E947C0173
S1130430CE016EE00E947C01CE0161E00E947C014D
S113044081E0DF91CF91089541E00E941D0181E098
S1130450089541E00E94440181E0089540E00E9433
S1130460440181E00895CF93DF93D82FC62F0E94D3
S11304706B01882329F08D2F6C2F0E942E020AC055
S11304808D2F6C2F0E946B01882321F48D2F6C2FEC
S11304900E94290281E0DF91CF91089540E00E94FB
S11304A01D0181E00895413021F40E946B01982FD1
S11304B00AC0442339F40E946B0191E0882319F0A7
S11304C090E001C00895892F0895991B79E004C034
S11304D0991F961708F0961B881F7A95C9F780957F
S10904E00895F894FFCF1B
S10F04E64D414745440030330100010241
S9030000FC
