:100000000C942A000C9447000C9447000C94470071
:100010000C9447000C9447000C9447000C94470044
:100020000C9447000C9447000C9447000C94470034
:100030000C9447000C9447000C9447000C94470024
:100040000C9447000C9447000C9447000C94470014
:100050000C94470011241FBECFE5D8E0DEBFCDBF12
:1000600010E0A0E6B0E0E8E0F9E002C005900D92F3
:10007000AC37B107D9F710E0ACE7B0E001C01D9292
:10008000AE37B107E1F70E94E6000C9482040C94AD
:1000900000001F93CF93DF93EC0188818230F0F44E
:1000A0008B81882351F010E08A81612F41E00E940A
:1000B00017011F5F8B811817B8F38881813031F4E5
:1000C00089816FE00E940B0181E00BC0882341F41D
:1000D00089816FE70E940B0181E003C080E001C0CD
:1000E00081E0DF91CF911F910895DF92EF92FF920F
:1000F0000F931F93CF93DF93CDB7DEB72A970FB639
:10010000F894DEBF0FBECDBF7C01862FD7019C9136
:10011000913009F04CC013964C911397442309F485
:1001200046C09E012F5F3F4FF9015AE0652F0E94A4
:10013000760491939E2F921B9417C0F3F70183814D
:100140008823A9F100E0DD24D70112968C91602F5D
:1001500041E00E943E01F7018381882379F01D2D43
:10016000011739F0D70112968C91612F4D2D0E9405
:100170003E011F5FF7018381181790F3E1E0F0E083
:10018000EC0FFD1FE00FF11DD70111968C916081DE
:100190000E941201E7EAF1E63197F1F700C0000092
:1001A0000F5FD70113968C911397081768F281E0BF
:1001B0002A960FB6F894DEBF0FBECDBFDF91CF9168
:1001C0001F910F91FF90EF90DF900895CF93DF93F1
:1001D000CDB7DEB72B970FB6F894DEBF0FBECDBFFD
:1001E000DE011196E0E6F0E08BE001900D92815087
:1001F000E1F7CE0101960E94AC038FE996E8A1E0F9
:1002000081509040A040E1F700C00000CE0101966F
:100210000E947504F2CFE82FF0E08181682B6183A2
:1002200081E00895E82FF0E0628381E00895423094
:1002300018F5442381F0E82FF0E0218181E090E07F
:10024000AC0102C0440F551F6A95E2F7BA01622B58
:10025000618381E00895E82FF0E0218181E090E062
:10026000AC0102C0440F551F6A95E2F7BA016095D0
:100270006223618381E0089580E00895423018F59B
:10028000442381F0E82FF0E0228181E090E0AC018E
:1002900002C0440F551F6A95E2F7BA01622B6283D0
:1002A00081E00895E82FF0E0228181E090E0AC0148
:1002B00002C0440F551F6A95E2F7BA0160956223A8
:1002C000628381E0089580E00895E82FF0E02081C6
:1002D00081E090E0AC0102C0440F551F6A95E2F73F
:1002E000BA01622381E009F480E00895CF93DF939F
:1002F000EC0188816FE00E940B0188816FEF0E9402
:10030000120181E0DF91CF910895CF93DF93EC014B
:1003100088816FEF0E94120110927C0060E088815A
:1003200040E00E943E0110927D0060E06C5F888199
:100330000E94650180936B00882349F060917D00E5
:100340006F5F60937D00643088F3882321F481E03F
:1003500080936B000DC0888160917C0041E00E9419
:100360003E0160917C006F5F60937C006430B8F266
:100370008BE49DE10197F1F700C00000E0917C0063
:10038000F0E080917D00EE0FFF1FEE0FFF1FE80FE2
:10039000F11DE459FF4F8081DF91CF9108951F93A4
:1003A000CF93DF93EC01162F88816B8140E00E9490
:1003B0003E0188816C8140E00E943E018981612F6D
:1003C0000E94120188816D8140E00E943E0183E01D
:1003D0008A95F1F7000088816D8141E00E943E011D
:1003E00091E29A95F1F700001150123038F483EF42
:1003F00091E00197F1F700C0000004C090E19A95E8
:10040000F1F700C081E0DF91CF911F9108951F9314
:10041000CF93DF93EC01162F88816B8141E00E941E
:100420003E0188816C8140E00E943E018981612FFC
:100430000E94120188816D8140E00E943E0183E0AC
:100440008A95F1F7000088816D8141E00E943E01AC
:1004500081E28A95F1F7000081E0DF91CF911F9151
:100460000895EF92FF920F931F93CF93DF938C0128
:10047000D42F4423B1F0E62EF72EC0E0F7016191AE
:100480007F01C8010E94070287EA91E60197F1F710
:1004900000C00000C80164E10E94CF01CF5FCD170A
:1004A00069F781E0DF91CF911F910F91FF90EF905D
:1004B0000895CF93DF93EC0185E08A95F1F7888169
:1004C0006FEF0E940B0189816FEF0E940B01CE013B
:1004D00068E30E94CF01CE016EE00E94CF01CE0101
:1004E00061E00E94CF0181E0DF91CF91089541E06A
:1004F0000E94170181E0089541E00E943E0181E0E1
:10050000089540E00E943E0181E00895CF93DF937B
:10051000D82FC62F0E946501882329F08D2F6C2FBC
:100520000E9481020AC08D2F6C2F0E9465018823D2
:1005300021F48D2F6C2F0E947C0281E0DF91CF91FE
:100540000895EF92FF920F931F93CF93DF937C0157
:10055000FC018081813079F4E701229687010A5FEE
:100560001F4F6991F701818141E00E941701C01777
:10057000D107B9F710C0882371F4E70122968701EB
:10058000075F1F4F6991F701818141E00E941701C8
:10059000C017D107B9F7F7018185628541E00E9454
:1005A000170181E0DF91CF911F910F91FF90EF90A4
:1005B0000895CF92DF92EF92FF920F931F93CF9304
:1005C000DF938C01C62FFC018081813039F5818554
:1005D000628541E00E943E01CC24DD246894C1F88C
:1005E000C00ED11EEE24FF24D1E0F60161916F010F
:1005F0004D2F4C2350E00E2C02C0559547950A9480
:10060000E2F7F80181810E943E01DD0F0894E11CB0
:10061000F11CF4E0EF16F10441F76BC0882309F0F8
:1006200068C0643099F1653050F46130E9F06130B0
:10063000A8F06230F9F0633009F04BC021C0673098
:10064000B9F1683030F4653039F1663009F041C0F5
:1006500029C0683099F16930E1F536C0F80181812F
:100660006EE70E94120135C0F801818160E30E94AB
:1006700012012FC0F80181816DE60E94120129C08C
:10068000F801818169E70E94120123C0F80181818C
:1006900063E30E9412011DC0F80181816BE50E9495
:1006A000120117C0F80181816FE50E94120111C08B
:1006B000F801818160E70E9412010BC0F80181817D
:1006C0006FE70E94120105C0F80181816BE70E946B
:1006D0001201F8018385882331F48185628540E029
:1006E0000E943E0106C0F8018185628541E00E94BA
:1006F0003E0181E0DF91CF911F910F91FF90EF902C
:10070000DF90CF90089540E00E94170181E00895A6
:10071000413021F40E946501982F0AC0442339F426
:100720000E94650191E0882319F090E001C00895CE
:10073000892F0895E82FF0E0608381E00895E82F85
:10074000F92F7183608381E00895E82FF0E08081C4
:10075000682B608381E00895CF93DF93EC0188815B
:1007600062E00E949A0389E260E00E949A036B8132
:1007700080E40E949A0389E26A810E949A038AE2D5
:1007800068E10E949A0380E460E80E94A5038C81DE
:10079000813029F480E460E40E94A50306C0882328
:1007A00021F480E460E00E94A5038D81813069F02E
:1007B000813030F0823071F0833009F089C00FC091
:1007C00080E460E00E94A5030EC080E460E10E9426
:1007D000A50309C080E460E20E94A50304C080E490
:1007E00060E30E94A5038E81882329F480E460E001
:1007F0000E94A50306C0813021F480E468E00E94D5
:10080000A5038F818733E1F0883330F4853351F0CD
:10081000863309F05FC00FC08833B9F0893309F01F
:1008200059C018C080E460E00E94A5038AE260E03D
:100830000E94A50317C080E462E00E94A50312C0D5
:1008400080E464E00E94A5030DC080E466E00E949D
:10085000A50308C080E466E00E94A5038AE264E084
:100860000E94A5038885882341F49C81913029F456
:1008700080E460E00E94A50309C0813039F48C81D6
:10088000813021F480E461E00E94A50389858130F4
:1008900041F49C81913029F48BE262E00E94A5032F
:1008A00006C0882321F48BE260E00E94A5038A85BC
:1008B000813031F48BE261E00E94A50381E00DC03C
:1008C000882351F48BE260E00E94A50381E005C01B
:1008D00080E003C080E001C081E0DF91CF91089506
:1008E0008CE20E949A0381E00895FFCF991B79E082
:1008F00004C0991F961708F0961B881F7A95C9F7B0
:0809000080950895F894FFCFE3
:100908003140802500000038000000010704010084
:0C0918000805020009060300010408099C
:00000001FF
