:100000000C942A000C9447000C9447000C94470071
:100010000C9447000C9447000C9447000C94470044
:100020000C9447000C9447000C9447000C94470034
:100030000C9447000C9447000C9447000C94470024
:100040000C9447000C9447000C9447000C94470014
:100050000C94470011241FBECFE5D8E0DEBFCDBF12
:1000600010E0A0E6B0E0EAE0F9E002C005900D92F1
:10007000AC37B107D9F710E0ACE7B0E001C01D9292
:10008000AE37B107E1F70E94E6000C9483040C94AC
:1000900000001F93CF93DF93EC0188818230F0F44E
:1000A0008B81882351F010E08A81612F41E00E940A
:1000B00018011F5F8B811817B8F38881813031F4E4
:1000C00089816FE00E940C0181E00BC0882341F41C
:1000D00089816FE70E940C0181E003C080E001C0CC
:1000E00081E0DF91CF911F910895DF92EF92FF920F
:1000F0000F931F93CF93DF93CDB7DEB72A970FB639
:10010000F894DEBF0FBECDBF7C01862FD7019C9136
:10011000913009F04CC013964C911397442309F485
:1001200046C09E012F5F3F4FF9015AE0652F0E94A4
:10013000770491939E2F921B9417C0F3F70183814C
:100140008823A9F100E0DD24D70112968C91602F5D
:1001500041E00E943F01F7018381882379F01D2D42
:10016000011739F0D70112968C91612F4D2D0E9405
:100170003F011F5FF7018381181790F3E1E0F0E082
:10018000EC0FFD1FE00FF11DD70111968C916081DE
:100190000E941301E7EAF1E63197F1F700C0000091
:1001A0000F5FD70113968C911397081768F281E0BF
:1001B0002A960FB6F894DEBF0FBECDBFDF91CF9168
:1001C0001F910F91FF90EF90DF900895CF93DF93F1
:1001D000CDB7DEB72B970FB6F894DEBF0FBECDBFFD
:1001E000DE011196E0E6F0E08BE001900D92815087
:1001F000E1F7CE0101960E94AD03CE01019660E9C0
:100200000E9471048FE996E8A1E081509040A040DF
:10021000E1F700C00000F1CFE82FF0E08181682B0A
:10022000618381E00895E82FF0E0628381E0089522
:10023000423018F5442381F0E82FF0E0218181E07D
:1002400090E0AC0102C0440F551F6A95E2F7BA0175
:10025000622B618381E00895E82FF0E0218181E045
:1002600090E0AC0102C0440F551F6A95E2F7BA0155
:1002700060956223618381E0089580E008954230B3
:1002800018F5442381F0E82FF0E0228181E090E02E
:10029000AC0102C0440F551F6A95E2F7BA01622B08
:1002A000628381E00895E82FF0E0228181E090E010
:1002B000AC0102C0440F551F6A95E2F7BA01609580
:1002C0006223628381E0089580E00895E82FF0E0E2
:1002D000208181E090E0AC0102C0440F551F6A9577
:1002E000E2F7BA01622381E009F480E00895CF9338
:1002F000DF93EC0188816FE00E940C0188816FEF31
:100300000E94130181E0DF91CF910895CF93DF9395
:10031000EC0188816FEF0E94130110927C0060E075
:10032000888140E00E943F0110927D0060E06C5F98
:1003300088810E94660180936B00882349F0609158
:100340007D006F5F60937D00643088F3882321F423
:1003500081E080936B000DC0888160917C0041E05A
:100360000E943F0160917C006F5F60937C0064306D
:10037000B8F28BE49DE10197F1F700C00000E09135
:100380007C00F0E080917D00EE0FFF1FEE0FFF1F5D
:10039000E80FF11DE459FF4F8081DF91CF9108955F
:1003A0001F93CF93DF93EC01162F88816B8140E080
:1003B0000E943F0188816C8140E00E943F01898159
:1003C000612F0E94130188816D8140E00E943F01EE
:1003D00083E08A95F1F7000088816D8141E00E94F9
:1003E0003F0191E29A95F1F700001150123038F474
:1003F00083EF91E00197F1F700C0000004C090E1A5
:100400009A95F1F700C081E0DF91CF911F91089597
:100410001F93CF93DF93EC01162F88816B8141E00E
:100420000E943F0188816C8140E00E943F018981E8
:10043000612F0E94130188816D8140E00E943F017D
:1004400083E08A95F1F7000088816D8141E00E9488
:100450003F0181E28A95F1F7000081E0DF91CF91C1
:100460001F910895EF92FF920F931F93CF93DF9305
:100470008C01D42F4423B1F0E62EF72EC0E0F70113
:1004800061917F01C8010E94080287EA91E6019705
:10049000F1F700C00000C80164E10E94D001CF5F05
:1004A000CD1769F781E0DF91CF911F910F91FF90F8
:1004B000EF900895CF93DF93EC0185E08A95F1F7F3
:1004C00088816FEF0E940C0189816FEF0E940C01FF
:1004D000CE0168E30E94D001CE016EE00E94D001FF
:1004E000CE0161E00E94D00181E0DF91CF910895BB
:1004F00041E00E94180181E0089541E00E943F011F
:1005000081E0089540E00E943F0181E00895CF938B
:10051000DF93D82FC62F0E946601882329F08D2FE4
:100520006C2F0E9482020AC08D2F6C2F0E946601E0
:10053000882321F48D2F6C2F0E947D0281E0DF91B2
:10054000CF910895EF92FF920F931F93CF93DF9374
:100550007C01FC018081813079F4E70122968701DA
:100560000A5F1F4F6991F701818141E00E941801E4
:10057000C017D107B9F710C0882371F4E70122969C
:100580008701075F1F4F6991F701818141E00E9458
:100590001801C017D107B9F7F7018185628541E0DD
:1005A0000E94180181E0DF91CF911F910F91FF9080
:1005B000EF900895CF92DF92EF92FF920F931F93E7
:1005C000CF93DF938C01C62FFC018081813039F5F8
:1005D0008185628541E00E943F01CC24DD2468943E
:1005E000C1F8C00ED11EEE24FF24D1E0F6016191C6
:1005F0006F014D2F4C2350E00E2C02C055954795AE
:100600000A94E2F7F80181810E943F01DD0F08940E
:10061000E11CF11CF4E0EF16F10441F76BC08823F4
:1006200009F068C0643099F1653050F46130E9F048
:100630006130A8F06230F9F0633009F04BC021C09E
:100640006730B9F1683030F4653039F1663009F05F
:1006500041C029C0683099F16930E1F536C0F80130
:1006600081816EE70E94130135C0F801818160E34A
:100670000E9413012FC0F80181816DE60E941301D1
:1006800029C0F801818169E70E94130123C0F801A4
:10069000818163E30E9413011DC0F80181816BE534
:1006A0000E94130117C0F80181816FE50E941301B8
:1006B00011C0F801818160E70E9413010BC0F801AD
:1006C00081816FE70E94130105C0F80181816BE70A
:1006D0000E941301F8018385882331F481856285A6
:1006E00040E00E943F0106C0F8018185628541E03B
:1006F0000E943F0181E0DF91CF911F910F91FF9008
:10070000EF90DF90CF90089540E00E94180181E0C3
:100710000895413021F40E946601982F0AC04423B5
:1007200039F40E94660191E0882319F090E001C03D
:100730000895892F0895E82FF0E0608381E00895FF
:10074000E82FF92F7183608381E00895E82FF0E0AE
:100750008081682B608381E00895CF93DF93EC0163
:10076000888162E00E949B0389E260E00E949B0313
:100770006B8180E40E949B0389E26A810E949B0353
:100780008AE268E10E949B0380E460E80E94A6037D
:100790008C81813029F480E460E40E94A60306C0C5
:1007A000882321F480E460E00E94A6038D818130DB
:1007B00069F0813030F0823071F0833009F089C007
:1007C0000FC080E460E00E94A6030EC080E460E1F8
:1007D0000E94A60309C080E460E20E94A60304C050
:1007E00080E460E30E94A6038E81882329F480E4DC
:1007F00060E00E94A60306C0813021F480E468E036
:100800000E94A6038F818733E1F0883330F485336B
:1008100051F0863309F05FC00FC08833B9F08933D7
:1008200009F059C018C080E460E00E94A6038AE283
:1008300060E00E94A60317C080E462E00E94A60365
:1008400012C080E464E00E94A6030DC080E466E06C
:100850000E94A60308C080E466E00E94A6038AE224
:1008600064E00E94A6038885882341F49C8191302E
:1008700029F480E460E00E94A60309C0813039F4C5
:100880008C81813021F480E461E00E94A603898597
:10089000813041F49C81913029F48BE262E00E9426
:1008A000A60306C0882321F48BE260E00E94A60321
:1008B0008A85813031F48BE261E00E94A60381E0F9
:1008C0000DC0882351F48BE260E00E94A60381E012
:1008D00005C080E003C080E001C081E0DF91CF91DE
:1008E00008958CE20E949B0381E00895FFCF991B3D
:1008F00079E004C0991F961708F0961B881F7A9517
:0A090000C9F780950895F894FFCF21
:10090A003140802500000038000000010704010082
:0C091A000805020009060300010408099A
:00000001FF
